:100000000C94AE010C94CB010C94CB010C94040520
:100010000C9410040C94D7040C947D040C94AA0442
:100020000C94E3030C9490030C94CB010C94CB013F
:100030000C94CB010C94CB010C94CB010C94CB0110
:100040000C94CB010C94CB010C94CB010C94500478
:100050000C94CB01000001000800400000010004E6
:1000600000000100080020004000800000010004A2
:10007000000E161E26252E363D3E46454E55660D73
:10008000151D242D2C353C43444D545B5D581C1BE1
:10009000232B34333B424B4C525A121A22212A3220
:1000A000313A41494A59141F112911272F14760555
:1000B00006040C030B830A01097807777B4A717CDD
:1000C000795A7069727A6B73746C757D706C7D711E
:1000D000697A756B7274007E00F1F2373F5E4810EA
:1000E0003A38302820184D153B34233221502B400C
:1000F0004B1C43221D666800686A69006B6C6D00CA
:10010000373D3B3A3C665C5D5E5F6061626365649F
:100110004D516B6C6D6E6F7071727374757677780C
:10012000797A7B7C7D7E7F8081828384005C5F5DC9
:10013000605E61373B3C636562644D0068000000AF
:100140003D003643100F1E3E2B000102111D1F0003
:100150002C003F03124120422D00400413142122A1
:100160002E2F06051615242331300708171B2544AA
:1001700032000D0918452600333C460A191A272873
:1001800000340C0B67000038003A0066000E1C4972
:10019000294A47480000003900645F000000000061
:1001A00000655C000000000000005E61000000626D
:1001B00000635D60002A35000000000000373B004E
:1001C00000000000680000003D003643100F1E3E96
:1001D0002B000102111D1F002C003F031241204281
:1001E0002D004004131421222E2F0605161524235A
:1001F00031300708171B254432000D091845260029
:10020000333C460A191A272800340C0B37000038F3
:10021000003A0066000E1C49294A47480000003990
:1002200000645F000000000000655C00000000004A
:1002300000005E610000006200635D60002A35001E
:100240000000000000373B000000000068000000D4
:100250003D003643100F1E3E2B00010211371F00D8
:100260002C003F03124120422D0040041314212290
:100270002E2F06051615242331300708171B254499
:1002800032000D0918452600333C460A191A272862
:1002900000340C0B67000038003A0066000E1C4961
:1002A000294A47480000003900645F000000000050
:1002B00000655C000000000000005E61000000625C
:1002C00000635D60002A35000000000000373B003D
:1002D00000000000680000003D003743100F1E3E84
:1002E0002B00010211361F002C003F031241204257
:1002F0002D004004131421222E2F06051615242349
:1003000031300708171B254432000D091845260017
:10031000333C460A191A272800340C0B1D000038FC
:10032000003A0066000E1C49294A4748000000397F
:1003300000645F000000000000655C000000000039
:1003400000005E610000006200635D60002A35000D
:100350000000000000373B000000000011241FBE19
:10036000CFE5D4E0DEBFCDBF10E0A0E6B0E0E8E22C
:10037000F9E102C005900D92A636B107D9F712E057
:10038000A6E6B0E001C01D92A931B107E1F70E94D5
:10039000CC090C94920C0C940000089580E090E03D
:1003A000FC01EE0FFF1FEA59FF4F118210820196E8
:1003B00088309105A9F783B7887F826083BF12BE1A
:1003C00089B7816089BF10920802109209021092C9
:1003D0000A0210920B028EB5887F83608EBD1DBC11
:1003E0001CBC89B7846089BF85B5887F846085BD62
:1003F00014BC89B7806489BF109210021092110258
:1004000010921202109213027894089583B7887F95
:10041000826083BF12BE89B7816089BF10920802D3
:100420001092090210920A0210920B0208958EB5E2
:10043000887F83608EBD1DBC1CBC89B7846089BF6A
:10044000089585B5887F846085BD14BC89B78064B4
:1004500089BF109210021092110210921202109293
:100460001302089593B7987F982B93BF08959EB574
:10047000987F982B9EBD089595B5987F982B95BD34
:10048000089583B7E82FF0E0E770F070EE0FFF1FDC
:10049000EC5AFF4F25913491C90108958EB5E82F8C
:1004A000F0E0E770F070EE0FFF1FEC5AFF4F259160
:1004B0003491C901089585B5E82FF0E0E770F07038
:1004C000EE0FFF1FE05AFF4F25913491C9010895A7
:1004D000883040F4E82FF0E0EE0FFF1FEA59FF4F9D
:1004E000718360830895883040F4E82FF0E0EE0FC8
:1004F000FF1FEA59FF4F118210820895EF92FF9279
:100500000F931F93CF93DF93EC0112B710920C025D
:1005100010920D0210920E0210920F0283B7E82F74
:10052000F0E0E770F070EE0FFF1FEC5AFF4F2591DF
:10053000349140E050E060E07BE187EB90E00E9486
:10054000630CB901CA01693B2DE8720726E08207F6
:1005500020E09207A0F437E2C131D30780F49E0176
:1005600040E050E00E94030C28EE33E040E050E011
:100570000E94410CC901DA01BC01CD0121C028EE65
:1005800033E040E050E00E94410CCA01B9019E01F5
:1005900040E050E00E94030C13C080910C02909147
:1005A0000D02A0910E02B0910F0285B78F7485BF26
:1005B00085B7806485BF889585B78F7B85BF08C068
:1005C0009B01AC01210F311D411D511D79018A0193
:1005D00020910C0230910D0240910E0250910F02B9
:1005E00082B790E0A0E0B0E0542F432F322F2227B3
:1005F000822B932BA42BB52B8E159F05A007B1073B
:1006000060F2DF91CF911F910F91FF90EF900895CD
:10061000109208021092090210920A0210920B0224
:100620000895209108023091090240910A025091E8
:100630000B02B901CA010895109210021092110222
:10064000109212021092130208952091100230911C
:1006500011024091120250911302B901CA0108958A
:10066000893031F48FB582608FBD8FB58E7F0AC01F
:100670008A3019F48FB5826002C08FB58D7F8FBD2F
:100680008FB581608FBD1BBC1ABC19BC18BC089506
:100690002FB52E7F2FBD2FB522602FBD2EB5286020
:1006A0002EBD2EB520612EBD97BD86BD1BBC1ABCCC
:1006B00019BC18BC08958FB58D7F8FBD8FB58E7F07
:1006C0008FBD8FB58F778FBD8FB58F7B8FBD8FB56A
:1006D0008F7D8FBD8FB58F7E8FBD08958FB580685C
:1006E0008FBD8FB58F7B8FBD08958FB580628FBD15
:1006F0008FB58F7E8FBD08958FB58F778FBD8FB5E6
:100700008F7B8FBD08958FB58F7D8FBD8FB58F7E09
:100710008FBD08959BBD8ABD089599BD88BD08957C
:100720001F920F920FB60F9211242F933F934F9366
:100730005F936F937F938F939F93AF93BF93EF9349
:10074000FF938091080290910902A0910A02B09152
:100750000B020196A11DB11D80930802909309021E
:10076000A0930A02B0930B0280910C0290910D02AB
:10077000A0910E02B0910F020196A11DB11D8093B0
:100780000C0290930D02A0930E02B0930F02809181
:10079000660090916700892B29F0E0916600F09146
:1007A00067000995FF91EF91BF91AF919F918F9154
:1007B0007F916F915F914F913F912F910F900FBE5D
:1007C0000F901F9018951F920F920FB60F92112441
:1007D0002F933F934F935F936F937F938F939F9349
:1007E000AF93BF93EF93FF9380916800909169005E
:1007F000892B29F0E0916800F09169000995FF913B
:10080000EF91BF91AF919F918F917F916F915F9188
:100810004F913F912F910F900FBE0F901F90189501
:100820001F920F920FB60F9211242F933F934F9365
:100830005F936F937F938F939F93AF93BF93EF9348
:10084000FF938091100290911102A0911202B09139
:1008500013020196A11DB11D809310029093110205
:10086000A0931202B09313028091700090917100D6
:10087000892B29F0E0917000F09171000995FF91AA
:10088000EF91BF91AF919F918F917F916F915F9108
:100890004F913F912F910F900FBE0F901F90189581
:1008A0001F920F920FB60F9211242F933F934F93E5
:1008B0005F936F937F938F939F93AF93BF93EF93C8
:1008C000FF938091740090917500892B29F0E0913D
:1008D0007400F09175000995FF91EF91BF91AF9170
:1008E0009F918F917F916F915F914F913F912F9148
:1008F0000F900FBE0F901F9018951F920F920FB67A
:100900000F9211242F933F934F935F936F937F9395
:100910008F939F93AF93BF93EF93FF9380916A0060
:1009200090916B00892B29F0E0916A00F0916B00A7
:100930000995FF91EF91BF91AF919F918F917F9119
:100940006F915F914F913F912F910F900FBE0F903C
:100950001F9018951F920F920FB60F9211242F938C
:100960003F934F935F936F937F938F939F93AF9337
:10097000BF93EF93FF9380916C0090916D00892B52
:1009800029F0E0916C00F0916D000995FF91EF91D5
:10099000BF91AF919F918F917F916F915F914F9197
:1009A0003F912F910F900FBE0F901F9018951F929F
:1009B0000F920FB60F9211242F933F934F935F9393
:1009C0006F937F938F939F93AF93BF93EF93FF9317
:1009D00080916E0090916F00892B29F0E0916E005C
:1009E000F0916F000995FF91EF91BF91AF919F91A9
:1009F0008F917F916F915F914F913F912F910F90C8
:100A00000FBE0F901F9018951F920F920FB60F9266
:100A100011242F933F934F935F936F937F938F9303
:100A20009F93AF93BF93EF93FF9380917200909148
:100A30007300892B29F0E0917200F0917300099501
:100A4000FF91EF91BF91AF919F918F917F916F91A6
:100A50005F914F913F912F910F900FBE0F901F907C
:100A6000189580937700F894809115028F7E80937B
:100A7000150280911502886080931502789408957C
:100A8000F894809115028B7F809315027894809161
:100A9000760008958FEC84BD80911402833000F5B8
:100AA0008B98939A8091150280FF23C0829BA3C0EC
:100AB00080911402813031F0813040F0823009F0B1
:100AC000F6C006C0839902C08DE096C082E094C053
:100AD0008091150283FFEBC093988B9A84E28CC0BF
:100AE000809114028A3108F079C08091150280FD4E
:100AF00008C0809115028160809315028A98929AAD
:100B00000895829B76C080911402873140F4803131
:100B100018F58D3061F08F3009F055C00CC0883168
:100B2000E1F1883158F1893109F04DC049C0809117
:100B300015028D7F4DC0809115028B7F8093150229
:100B4000839B05C080E88093760081E014C01092FA
:100B500079001092760037C0809176008695809358
:100B60007600839B30C08091760080688093760009
:100B7000809179008F5F8093790025C0839B05C0A9
:100B8000809179008F5F809379008091790080FD5A
:100B90001AC080911502826010C0839905C08091AF
:100BA00015028260809315028091150281FD0BC0B1
:100BB00093988B9A8091150284608093150203C0EC
:100BC0008B98939A6CC092988A9A809115028E7F26
:100BD00080931502809114028F5F0EC080911402E1
:100BE0008F3208F064C08091150280FF10C0829996
:100BF00006C08B98939A81E08093140208958091A7
:100C000015028E7F8093150292988A9A089580919A
:100C100015028160809315028A98929A809114023D
:100C20008C3228F4853280F48432E1F507C08D32AD
:100C300099F18D32E8F08E32A9F531C080917700BC
:100C400080937800109279008091780080FF08C02E
:100C50008B98939A809179008F5F8093790002C07E
:100C600093988B9A809178008695809378001AC02B
:100C70008091790080FF03C093988B9A02C08B9873
:100C8000939A80911502877F8093150280911502B7
:100C900080618093150206C08B98939A03C01092CE
:100CA00014020895809114028F5F809314020895B6
:100CB0001092140281E1809315028A98929A8B987F
:100CC000939A0E94210282E00E943C0285E06AE43D
:100CD00075E00E9468028FEC84BD0895282F8F3F35
:100CE00031F410927B0081E080939A0008958E3F4A
:100CF00021F08D3F29F410927B0010929A00089504
:100D000080919A00882351F080917B00E82FF0E0D9
:100D1000E751FE4F20838F5F80937B008091980086
:100D200090919900019668EC70E00E942E0CFC01F5
:100D300090939900809398008091960090919700ED
:100D40008E179F0759F4009719F487EC90E001C0C3
:100D5000019790939900809398000895E05EFE4F6C
:100D600020830895209196003091970080919800FB
:100D7000909199002817390711F480E00895C9016E
:100D8000019668EC70E00E942E0CFC019093970095
:100D900080939600E05EFE4F8081089540E02091B0
:100DA00096003091970080919800909199002817B3
:100DB000390709F441E0842F0895109297001092AA
:100DC0009600109299001092980010927B00109259
:100DD0007C001092F3011092F4011092F501109230
:100DE000F601E7EFF1E0119282E0E830F807D9F779
:100DF000089580FF02C0949A01C0949881FF02C0B8
:100E0000919A01C0919882FF02C0909A089590989B
:100E10000895EBE9F0E0119281E0E032F807D9F7AC
:100E200025EF30E006C0FC01E556FF4F808182606F
:100E30008083F901849190E02F5F3F4F009799F7ED
:100E400028EF30E006C0FC01E556FF4F808184604A
:100E50008083F901849190E02F5F3F4F009799F7CD
:100E60002CEF30E006C0FC01E556FF4F8081886022
:100E70008083F901849190E02F5F3F4F009799F7AD
:100E800020E031E006C0FC01E556FF4F8081816023
:100E90008083F901849190E02F5F3F4F009799F78D
:100EA0002DE231E006C0FC01E556FF4F80818061F4
:100EB0008083F901849190E02F5F3F4F009799F76D
:100EC000E7EFF1E0119282E0E830F807D9F70895F2
:100ED0001F9311B3919A909A949A82E390E00E94A2
:100EE0007E0291989098949884E690E00E947E0209
:100EF00011BB1F9108952F923F924F925F926F9274
:100F00007F928F929F92AF92BF92CF92DF92EF9299
:100F1000FF920F931F93CF93DF9380B390E0809560
:100F200090958076907065E0959587956A95E1F744
:100F3000982EAA24BB24CC24DD24C0E0D0E051E0CC
:100F4000E52EF12C47E1442E512C3FE0632E712C0D
:100F500087010C2E02C0000F111F0A94E2F707BB95
:100F6000802F809588BB81E090E00E94CD01E3E86E
:100F7000F0E040E050E0302F3095842F483048F4C6
:100F800029B3C701042E02C0880F991F0A94E2F703
:100F900011C08850883018F423B3C30102C020B3B5
:100FA000C201841B950BB70102C0660F771F8A959B
:100FB000E2F7CB012095282319F00894C11CD11C1D
:100FC0009081802F892319F0222329F009C0222340
:100FD00039F0902B01C09323908321E0A22EB12CF5
:100FE0004F5F5F4F31964131510539F62196C83038
:100FF000D10509F0ADCF71E0971621F083E0981686
:1010000009F087C094980E94750380917F009091A9
:101010008000009751F4809181009091820065E0FA
:1010200070E00E942E0CCB010EC08230910571F44D
:1010300080918100909182006BEF7FEF0E942E0CD7
:10104000CB0181509F4F0E948D030EC081309105CE
:1010500011F0039749F480918100909182000196EC
:10106000909382008093810020917F0030918000D6
:101070002430310594F480918100909182008B5F3F
:101080009440FCF01092820010928100C9010196F8
:1010900064E070E00E942E0C0FC02430310589F40A
:1010A00080918100909182000A97F1F48FEF90E097
:1010B0000E948D0385E090E09093800080937F00F4
:1010C00013C08091810090918200865F994064F006
:1010D000CD2831F482E090E09093800080937F00EF
:1010E0001092820010928100809181009091820084
:1010F000019690938200809381008091150281FF78
:101100000AC0F894809115028D7F8093150278941F
:1011100002C00E948303AB2829F010929500109220
:1011200094000CC0809194009091950084369105B4
:101130002CF40196909395008093940080919400F4
:1011400090919500099719F020E030E005C121E069
:10115000921619F043E0941671F480E090E00E943A
:101160008D03109282001092810084E090E09093B1
:10117000800080937F00E090F301F090F4010091F3
:10118000F5011091F601D090E80181E1989EE0010F
:10119000112493E0CC0FDD1F9A95E1F7C45CDE4F7C
:1011A0008824992481E0282E312CAEC0CD2CF50165
:1011B000ED57FF4F90819421F301D490F501E95050
:1011C000FE4F8081842119F0992321F088C0992352
:1011D00009F485C0DD2009F482C0AD2DB0E0FD0129
:1011E000E059FF4F5490992309F44CC01092180213
:1011F000A556BF4F8C91182F81FF2FC0F6E6DF1642
:1012000021F028E6D216D1F50EC08FEF0E946E06AF
:1012100080EE0E946E0682E10E946E0680EE0E94C1
:101220006E068CE723C08DEF0E946E0681EE0E9451
:101230006E0684E10E946E0687E70E946E0681EECC
:101240000E946E0680EF0E946E0684E10E946E0688
:1012500080EF0E946E0687E70CC08FEF0E946E063B
:1012600010FF03C080EE0E946E06852D0E946E0660
:101270008EEF0E946E068CEF0E946E06EE24FF2415
:1012800087012EC0CD1411F410927B00ED2DF0E0FB
:10129000E556FF4F808181FF14C046E6D416F9F46D
:1012A00080EE0E946E0680EF0E946E068CE70E9420
:1012B0006E0680EE0E946E0680EF0E946E0682E14E
:1012C00009C080FF03C080EE0E946E0680EF0E947E
:1012D0006E06852D0E946E068CEF0E946E06DC2C39
:1012E0000894A11CB11C68E070E0660E771E71E1E5
:1012F000A716B10409F05ACF0894811C911C2196BD
:1013000088E08816910469F0C101082C02C0880F9A
:10131000991F0A94E2F7482ECD2C3E01AA24BB2443
:1013200046CFE092F301F092F4010093F50110939F
:10133000F601D092E80120E030E0F901E950FE4FDB
:10134000D901AD57BF4F8C9180832F5F3F4F213123
:10135000310599F721E030E0C901DF91CF911F916C
:101360000F91FF90EF90DF90CF90BF90AF909F9044
:101370008F907F906F905F904F903F902F90089547
:101380001F93162F8E3F11F0809317020E94310594
:10139000109318021F9108959F92AF92BF92CF921F
:1013A000DF92EF92FF920F931F938FEF87BB88BB63
:1013B0001ABA14BA11BA8BBB85BB82BB899A889AB8
:1013C0008C9A919A909A949A81B38F7181BB82B3CF
:1013D000806E82BB0E94CE0188E00E94300388E0CC
:1013E000809318020E9458060E940907789412E020
:1013F000912EB5E0AB2EB12CC12CD12C80911502D1
:1014000082FFEAC080917D0090917E008C3F910523
:1014100061F0209196003091970080919800909112
:1014200099002817390709F0D7C00E94400560913C
:101430001802623009F468C0633018F4613039F47E
:101440005DC0663009F4B7C0673009F47FC0833FE0
:1014500061F1843F70F48E3EB9F08F3E20F48D3EF2
:1014600009F0B8C01FC0803FD1F0823F09F0B2C080
:101470000DC0863FE9F0873F08F4ACC08E3F61F0B5
:101480008F3F09F0A7C005C08EEEBAC18AEF64E0B5
:10149000B7C18AEF68E0B4C180911702B1C18AEF89
:1014A00062E0AEC18AEF66E0ABC18AEF67E0A8C137
:1014B00090926000A0926100B0926200C0926300BE
:1014C000D0926400109297001092960010929900AA
:1014D0001092980010927B0010927C001092F30101
:1014E0001092F4011092F5011092F601E7EFF1E08D
:1014F000119282E0E830F807D9F76CC0853F09F413
:1015000069C08AEF61E07CC110929700109296004A
:10151000109299001092980010927B0010927C001B
:101520001092F3011092F4011092F5011092F6015D
:10153000E7EFF1E0119292E0E830F907D9F788235C
:1015400011F060E001C063E08AEF5AC1682F70E0DB
:10155000CB0180769070A5E095958795AA95E1F7E7
:1015600080936000AB0148715070F3E0559547954A
:10157000FA95E1F780E090E021E030E003C0220F2F
:10158000331F019684179507D4F367707070269FF8
:10159000C001279F900D369F900D1124AA2797FD1B
:1015A000A095BA2F8093610090936200A09363008E
:1015B000B09364000FC080FF02C0949A01C0949859
:1015C00081FF02C0909A01C0909882FF02C0919A58
:1015D00001C091988AEF13C18091150284FF0ECF4C
:1015E00080911802843009F4DFC0853030F48823FC
:1015F00071F0833009F002CFD5C0883009F4D9C02A
:101600008C3009F45BC0853009F0F8CED0C0209151
:10161000960030919700809198009091990028173A
:10162000390711F40E947B070E94B206282F30E090
:1016300030937E0020937D002C3F310509F4DECEEF
:10164000232B21F060E00E94C0095CC080917B00E8
:10165000882309F4D3CE8091F3019091F401A091F5
:10166000F501B091F6010196A11DB11D8093F30122
:101670009093F401A093F501B093F60120916000DE
:101680006AEF269F90011124245D3E4F442737FDC9
:101690004095542F82179307A407B5070CF4AECEDC
:1016A0001092F3011092F4011092F5011092F601DC
:1016B00010927C008CE080931802A0CE80917C0078
:1016C000882311F40E947B0780917B008823C1F05E
:1016D0002091960030919700809198009091990008
:1016E0002817390769F48091F3019091F401A091D2
:1016F000F501B091F6010197A105B10561F40FC0A4
:10170000109218021092F3011092F4011092F50158
:101710001092F60173CE80917C008823A9F09091FD
:101720007C00E92FF0E0E751FE4F80819F5F9093AE
:101730007C006CE00E94C00960917B0080917C007D
:101740000E94220C90937C00E090F301F090F40151
:101750000091F5011091F6010894E11CF11C011DA6
:10176000111D609161007091620080916300909101
:1017700064002AE030E040E050E00E94030C9B014E
:10178000AC012D5F3F4F4F4F5F4FC801B7010E9423
:10179000630C6093F3017093F4018093F5019093CF
:1017A000F6012CCE82E02BC08BEA65E029C083E8ED
:1017B00026C0919A909A949A10929700109296004F
:1017C000109299001092980010927B0010927C0069
:1017D0001092F3011092F4011092F5011092F601AB
:1017E000E7EFF1E0119282E0E830F807D9F788EEF0
:1017F00093E00E947E029198909894988AEA60E023
:101800000E94C009FBCD629FD001739FF001829FAF
:10181000E00DF11D649FE00DF11D929FF00D839F7F
:10182000F00D749FF00D659FF00D9927729FB00D1C
:10183000E11DF91F639FB00DE11DF91FBD01CF012F
:1018400011240895991B79E004C0991F961708F098
:10185000961B881F7A95C9F78095089597FB092EE6
:1018600007260AD077FD04D049D006D000201AF40C
:10187000709561957F4F0895F6F7909581959F4FEC
:101880000895A1E21A2EAA1BBB1BFD010DC0AA1FC1
:10189000BB1FEE1FFF1FA217B307E407F50720F0D9
:1018A000A21BB30BE40BF50B661F771F881F991F54
:1018B0001A9469F760957095809590959B01AC019D
:1018C000BD01CF01089597FB092E05260ED057FDC7
:1018D00004D0D7DF0AD0001C38F4509540953095DD
:1018E00021953F4F4F4F5F4F0895F6F790958095A4
:1018F000709561957F4F8F4F9F4F0895AA1BBB1B1B
:1019000051E107C0AA1FBB1FA617B70710F0A61BFF
:10191000B70B881F991F5A95A9F780959095BC0120
:08192000CD010895F894FFCFFA
:06192800020500000000B2
:00000001FF
