:100000000C94AE010C94CB010C94CB010C94E00445
:100010000C94EC030C94B3040C9459040C948604D3
:100020000C94BF030C946C030C94CB010C94CB0187
:100030000C94CB010C94CB010C94CB010C94CB0110
:100040000C94CB010C94CB010C94CB010C942C049C
:100050000C94CB010000010008002000400080004B
:10006000000100040000010008004000000100043D
:10007000680000003D003643100F1E3E2B000102B9
:10008000111D1F002C003F03124120422D0040048F
:10009000131421222E2F06051615242331300708AC
:1000A000171B254432000D0918452600333C460A2B
:1000B000191A272800340C0B67000038003A006634
:1000C000000E1C49294A47480000003900645F00BF
:1000D0000000000000655C000000000000005E61A0
:1000E0000000006200635D60002A3500000000002F
:1000F00000373B0000000000680000003D00364370
:10010000100F1E3E2B000102111D1F002C003F038B
:10011000124120422D004004131421222E2F0605E7
:100120001615242331300708171B254432000D090A
:1001300018452600333C460A191A272800340C0BB0
:1001400037000038003A0066000E1C49294A47482B
:100150000000003900645F000000000000655C00E2
:100160000000000000005E610000006200635D604E
:10017000002A35000000000000373B0000000000AE
:10018000680000003D003643100F1E3E2B000102A8
:1001900011371F002C003F03124120422D00400464
:1001A000131421222E2F060516152423313007089B
:1001B000171B254432000D0918452600333C460A1A
:1001C000191A272800340C0B67000038003A006623
:1001D000000E1C49294A47480000003900645F00AE
:1001E0000000000000655C000000000000005E618F
:1001F0000000006200635D60002A3500000000001E
:1002000000373B0000000000680000003D0037435D
:10021000100F1E3E2B00010211361F002C003F0361
:10022000124120422D004004131421222E2F0605D6
:100230001615242331300708171B254432000D09F9
:1002400018452600333C460A191A272800340C0B9F
:100250001D000038003A0066000E1C49294A474834
:100260000000003900645F000000000000655C00D1
:100270000000000000005E610000006200635D603D
:10028000002A35000000000000373B00000000009D
:100290005C5F5D605E61373B3C636562644D003767
:1002A0003D3B3A3C665C5D5E5F6061626365644DE8
:1002B000516B6C6D6E6F707172737475767778793F
:1002C0007A7B7C7D7E7F8081828384006B6C6D0075
:1002D000686A6900666800000E161E26252E363DE7
:1002E0003E46454E55660D151D242D2C353C434488
:1002F0004D545B5D581C1B232B34333B424B4C52FB
:100300005A121A22212A32313A41494A59141F11EC
:100310002911272F14760506040C030B830A010903
:100320007807777B4A717C795A7069727A6B73743B
:100330006C757D706C7D71697A756B7274007E006E
:10034000F1F2373F5E48103A38302820184D153BFF
:1003500034233221502B404B1C43221D11241FBE3D
:10036000CFE5D4E0DEBFCDBF10E0A0E6B0E0E0ED29
:10037000F7E102C005900D92A636B107D9F722E049
:10038000A6E6B0E001C01D92A931B207E1F70E94D4
:1003900069090C94D30B0C940000089593B7987FCF
:1003A000982B93BF08959EB5987F982B9EBD089576
:1003B00083E00E94D3011DBC1CBC89B7846089BF47
:1003C000089595B5987F982B95BD0895E3B7E7708C
:1003D000F0E0EE0FFF1FEC59FF4F859194910895C7
:1003E000EEB5E770F0E0EE0FFF1FEC59FF4F85917F
:1003F00094910895E5B5E770F0E0EE0FFF1FEC5A19
:10040000FF4F859194910895883040F4E82FF0E0F3
:10041000EE0FFF1FEA59FF4F718360830895883004
:1004200040F4E82FF0E0EE0FFF1FEA59FF4F118272
:10043000108208951F93CF93DF93CDB7DEB72A972D
:100440000FB6F894DEBF0FBECDBF89879A8712B76B
:1004500010920C0210920D0210920E0210920F02D6
:100460000E94E6019C0150E040E060E07BE187EB08
:1004700090E00E94800B29833A834B835C83A9859B
:10048000BA85CD01B0E0A0E08D839E83AF83B887AD
:10049000293BBDE83B07B6E04B075105F4F48985DD
:1004A0009A8581319742C8F46D817E818F819885CC
:1004B0000E942E0B28EE33E040E050E00E945E0BDD
:1004C00029833A834B835C8349815A816B817C8188
:1004D000410F511D611D711D27C069817A818B817A
:1004E0009C8128EE33E040E050E00E945E0B6D817D
:1004F0007E818F8198850E942E0B69837A838B83FE
:100500009C83E2CF80910C0290910D02A0910E028B
:10051000B0910F0285B78F7485BF85B7806485BFA2
:10052000889585B78F7B85BF80910C0290910D02D5
:10053000A0910E02B0910F0222B7BA2FA92F982FC7
:100540008827822B84179507A607B707D8F22A9623
:100550000FB6F894DEBF0FBECDBFDF91CF911F91D4
:100560000895109208021092090210920A02109245
:100570000B02089582E00E94CE0112BE89B781600D
:1005800089BF0C94B102CF93DF9300D000D0CDB7D8
:10059000DEB78091080290910902A0910A02B09101
:1005A0000B02BC01CD010F900F900F900F90DF91C7
:1005B000CF9108951092100210921102109212021F
:1005C00010921302089584E00E94E10114BC89B7DF
:1005D000806489BF0C94DA02CF93C0E08C2F0E9414
:1005E0000F02CF5FC830D1F70E94BA020E94D80133
:1005F0000E94E3027894CF910895CF93DF9300D0C7
:1006000000D0CDB7DEB78091100290911102A09179
:100610001202B0911302BC01CD010F900F900F9008
:100620000F90DF91CF910895893059F48FB5826092
:100630008FBD8FB58E7F8FBD1BBC1ABC19BC18BC7B
:1006400008958A3031F48FB582608FBD8FB5816097
:10065000F2CF8FB58D7FF9CF9C018FB58E7F8FBD87
:100660008FB582608FBD8EB588608EBD8EB580617E
:100670008EBD37BD26BD1BBC1ABC19BC18BC089565
:100680008FB580688FBD8FB58F7B8FBD08958FB577
:1006900080628FBD8FB58F7E8FBD08958FB58F77A8
:1006A0008FBD8FB58F7B8FBD08958FB58F7D8FBD2B
:1006B0008FB58F7E8FBD08958FB58D7F8FBD8FB520
:1006C0008E7F8FBD0E944E030C9455039BBD8ABD47
:1006D000089599BD88BD08951F920F920FB60F928D
:1006E00011242F933F934F935F936F937F938F9337
:1006F0009F93AF93BF93EF93FF93809108029091E4
:100700000902A0910A02B0910B020196A11DB11D30
:100710008093080290930902A0930A02B0930B02FF
:1007200080910C0290910D02A0910E02B0910F02E7
:100730000196A11DB11D80930C0290930D02A09310
:100740000E02B0930F028091660090916700892B92
:1007500029F0E0916600F09167000995FF91EF9113
:10076000BF91AF919F918F917F916F915F914F91C9
:100770003F912F910F900FBE0F901F9018951F92D1
:100780000F920FB60F9211242F933F934F935F93C5
:100790006F937F938F939F93AF93BF93EF93FF9349
:1007A0008091680090916900892B29F0E0916800A0
:1007B000F09169000995FF91EF91BF91AF919F91E1
:1007C0008F917F916F915F914F913F912F910F90FA
:1007D0000FBE0F901F9018951F920F920FB60F9299
:1007E00011242F933F934F935F936F937F938F9336
:1007F0009F93AF93BF93EF93FF93809110029091DB
:100800001102A0911202B09113020196A11DB11D17
:100810008093100290931102A0931202B0931302DE
:100820008091700090917100892B29F0E091700007
:10083000F09171000995FF91EF91BF91AF919F9158
:100840008F917F916F915F914F913F912F910F9079
:100850000FBE0F901F9018951F920F920FB60F9218
:1008600011242F933F934F935F936F937F938F93B5
:100870009F93AF93BF93EF93FF93809174009091F8
:100880007500892B29F0E0917400F09175000995AD
:10089000FF91EF91BF91AF919F918F917F916F9158
:1008A0005F914F913F912F910F900FBE0F901F902E
:1008B00018951F920F920FB60F9211242F933F930A
:1008C0004F935F936F937F938F939F93AF93BF9358
:1008D000EF93FF9380916A0090916B00892B29F030
:1008E000E0916A00F0916B000995FF91EF91BF9143
:1008F000AF919F918F917F916F915F914F913F91B8
:100900002F910F900FBE0F901F9018951F920F926E
:100910000FB60F9211242F933F934F935F936F93D2
:100920007F938F939F93AF93BF93EF93FF938091A8
:100930006C0090916D00892B29F0E0916C00F09192
:100940006D000995FF91EF91BF91AF919F918F91AC
:100950007F916F915F914F913F912F910F900FBEBB
:100960000F901F9018951F920F920FB60F9211249F
:100970002F933F934F935F936F937F938F939F93A7
:10098000AF93BF93EF93FF9380916E0090916F00B0
:10099000892B29F0E0916E00F0916F000995FF918D
:1009A000EF91BF91AF919F918F917F916F915F91E7
:1009B0004F913F912F910F900FBE0F901F90189560
:1009C0001F920F920FB60F9211242F933F934F93C4
:1009D0005F936F937F938F939F93AF93BF93EF93A7
:1009E000FF938091720090917300892B29F0E09120
:1009F0007200F09173000995FF91EF91BF91AF9153
:100A00009F918F917F916F915F914F913F912F9126
:100A10000F900FBE0F901F9018958A98929A089584
:100A200092988A9A08958B98939A089593988B9A9E
:100A300008958FEC84BD80911402833048F50E94A4
:100A400013058091150280FD07C080911502816019
:100A5000809315020C940D05829902C081E00DC0AF
:100A600080911402813031F0823051F0811107C041
:100A700082E003C08399FCCF8DE080931402089537
:100A80008091150283FFFBCF0E94160584E2F5CF0B
:100A9000809114028A3108F06DC08091150280FFA8
:100AA000D4CF829903C00E941305D8CF809114023D
:100AB0008731F1F1D8F48F3041F140F48D30F9F005
:100AC0000E941005809115028E7F1CC080917900D4
:100AD000869580937900839BF3CF8091790080681D
:100AE00080937900809176008F5F1AC0883189F1F8
:100AF000893131F70E9413051092140208958091F4
:100B000015028D7F809315026EC0809115028B7F38
:100B100080931502839B07C080E88093790081E071
:100B200080937600CDCF1092760010927900C8CFD6
:100B3000839B05C0809176008F5F809376008091C3
:100B4000760080FDBDCF80911502826080931502F2
:100B5000B7CF839905C080911502826080931502FA
:100B60008091150281FDACCF0E941605809115027F
:100B70008460ECCF809114028F3208F080CF809196
:100B8000150280FF09C0829B8ECF809115028E7F57
:100B9000809315020C94100580911502816080935A
:100BA00015020E940D05809114028C3251F1B0F4AF
:100BB0008432E9F085528730B0F48091770080FF6D
:100BC0001DC00E941305809176008F5F8093760090
:100BD0008091770086958093770005C08D3219F15A
:100BE0008E3209F489CF809114028F5F46CF8091B5
:100BF00078008093770010927600DFCF0E94160570
:100C0000E7CF8091760080FF0BC00E94160580918F
:100C10001502877F8093150280911502806172CF43
:100C20000E941305F4CF0E941305DDCF1092140229
:100C300081E1809315020E940D050E9413050E9418
:100C4000E30282E00E94E10169E175E085E00E9433
:100C500004028FEC84BD089580937800F89480910D
:100C600015028F7E80931502809115028860809313
:100C7000150278940895F894809115028B7F8093E3
:100C800015027894809179000895282F809194001E
:100C9000882351F0E091AB0081E08E0F8093AB0090
:100CA000F0E0E455FF4F20838091B9009091BA00A5
:100CB000019668EC70E00E944A0B9093BA00809312
:100CC000B9004091B7005091B8008417950759F4C6
:100CD000009731F001979093BA008093B90008957E
:100CE00087EC90E0F8CF85549F4FFC012083089556
:100CF0008F3F31F41092AB0081E08093940008950F
:100D00008E3F19F41092940008958D3F19F41092BB
:100D1000AB00F8CF0C9445068091B7009091B800D5
:100D20002091B9003091BA008217930771F00196B3
:100D300068EC70E00E944A0B9093B8008093B70073
:100D400085549F4FFC018081089580E0089581E0E3
:100D50004091B7005091B8002091B9003091BA008D
:100D60004217530709F080E008951092B8001092DE
:100D7000B7001092BA001092B9001092AB00109216
:100D8000AA001092A6001092A7001092A80010923C
:100D9000A900E5E9F0E0119280E0E63AF807D9F71A
:100DA0000895CF93C1B3919A909A949A82E390E078
:100DB0000E941A0291989098949884E690E00E947C
:100DC0001A02C1BBCF91089580FF08C0949A81FF99
:100DD00007C0919A82FF06C0909A08959498F7CF21
:100DE0009198F8CF90980895CF93C62F8E3F11F029
:100DF000809317020E942C06C0931802CF91089589
:100E0000E3E8F1E0119282E0E830F807D9F7E4ED89
:100E1000F2E08491A82FB0E03196811129C0E0ED75
:100E2000F2E08491A82FB0E03196811127C0ECEC5C
:100E3000F2E08491A82FB0E03196811125C0EFE94E
:100E4000F2E08491A82FB0E03196811123C0E0E94F
:100E5000F2E08491A82FB0E03196811121C0E5E93C
:100E6000F0E086EA90E011928E179F07E1F708956F
:100E7000AD57BE4F8C9182608C93CBCFAD57BE4F98
:100E80008C9184608C93CDCFAD57BE4F8C91886090
:100E90008C93CFCFAD57BE4F8C9181608C93D1CFC7
:100EA000AD57BE4F8C9180618C93D3CF2F923F92E0
:100EB0004F925F926F927F928F929F92AF92BF926A
:100EC000CF92DF92EF92FF920F931F93CF93DF9316
:100ED00060B2712C6094709445E0759467944A9563
:100EE000E1F710E000E0B12CA12CD0E0C0E08824B4
:100EF0008394912C412C60E8562E7401002E01C081
:100F0000EE0C0A94EAF7E7BA3E2C309438BA81E046
:100F100090E00E94CD0133E8C32E30E0D32EF601DD
:100F200030E020E0283008F088C089B38095A40123
:100F3000022E01C0440F0A94EAF78423882319F093
:100F40004FEFA41AB40A9081492F4E2109F485C0AD
:100F5000882309F48AC02F5F3F4F31962131310534
:100F600009F70F5F1F4F0830110539F6162D117064
:100F700060FEB1C094980E94470320918100309197
:100F8000820080917F00909180002115310509F049
:100F90006EC065E070E00E944A0BCB010E946903BD
:100FA000809181009091820020917F00309180009B
:100FB000843091050CF071C02B3F34406CF01092DE
:100FC000800010927F00019664E070E00E944A0B5E
:100FD000909382008093810080917F0090918000A7
:100FE00001969093800080937F008091150281FF8D
:100FF00007C0F894809115028D7F80931502789434
:10100000209709F46BC010927E0010927D00D0E012
:10101000C0E0CE01DF91CF911F910F91FF90EF9033
:10102000DF90CF90BF90AF909F908F907F906F9008
:101030005F904F903F902F900895203151F083B3EF
:101040008095A201022E02C0569547950A94E2F7B8
:1010500074CF80B38095807871CF9E29882309F45E
:101060007ACF9083C1E0D0E076CF9321FACF2230BF
:10107000310541F46BEF7FEF0E944A0BCB018150A9
:101080009F4F8CCF2D7F2130310509F089CF0196FC
:101090009093800080937F0083CF049759F42A3087
:1010A000310509F099CF8FEF90E00E94690385E048
:1010B00090E08ECF263F39400CF48ECFAB2831F430
:1010C00082E090E0909382008093810010928000F3
:1010D00010927F0081CF0E94550392CF80917D00B6
:1010E00090917E00843691052CF4019690937E00B9
:1010F00080937D0080917D0090917E00099709F09A
:1011000088CF112371F090E080E00E946903109273
:10111000800010927F0084E090E0909382008093A2
:101120008100862D8370E8E88E9FC00111249C0108
:1011300020593F4F2901D0E0C0E026EA622E20E08E
:10114000722E81E00C2E01C0880F0A94EAF7282E37
:1011500085E9A82E80E0B82E7201EC0EFD1E93E802
:10116000892E90E0992E8501F80121918F01F401DB
:1011700091914F019221F70184912221D1F099237D
:10118000D1F048E0E40EF11C6016710669F7219673
:10119000C830D105B1F684E990E0F60121916F01E4
:1011A000F50121935F018C159D05B9F7C1E0D0E0F1
:1011B00030CF992331F3882321F3282F30E0F90130
:1011C000E952FD4F34902D573E4FF9012081322FC7
:1011D0003270992309F455C08093B6001092A6008E
:1011E0001092A7001092A8001092A9001092180265
:1011F0003323C9F1863601F1883609F0C2CF109247
:10120000AB001092940081EE0E94450684E10E949A
:10121000450687E70E94450681EE0E94450680EF5D
:101220000E94450684E10E94450680EF0E94450623
:1012300087E70E94450613C01092AB00F1E0F093DF
:10124000940080EE0E94450682E10E94450680EEF1
:101250000E9445068CE70E944506109294008CEF90
:101260000E9445068ECF1092AB0031E0309394007F
:1012700020FF03C080EE0E944506832D0E94780661
:10128000ECCF9091B600981302C01092AB003323BC
:10129000A1F0863609F075CF80EE0E94450680EFFA
:1012A0000E9445068CE70E94450680EE0E94450696
:1012B00080EF0E94450682E1BCCF20FF03C080EE94
:1012C0000E94450680EF0E944506832D0E94780605
:1012D000C6CFCDB7DEB728970FB6F894DEBF0FBEE6
:1012E000CDBF8FEF87BB88BB1ABA14BA11BA8BBBBC
:1012F00085BB82BB899A889A8C9A919A909A949A83
:1013000081B38F7181BB82B3806E82BB0E94EC027D
:1013100088E00E94140388E0809318020E94160659
:101320000E9400077894B5E0CB2ED12CE12CF12C53
:101330008091150282FF9FC080917B0090917C007C
:101340008C3F910529F00E94A706882309F493C0D9
:101350000E943B06898360911802663009F478C0C8
:1013600090F4613009F464C0623009F466C02981E8
:101370002D5E2983233108F059C0E22FF0E0EB52B3
:10138000F44F0C949F0B673091F78981807690E041
:1013900075E0959587957A95E1F7809364002981AA
:1013A000277030E059815871E52FF0E0A3E0F59502
:1013B000E795AA95E1F741E050E090E080E08E17D4
:1013C0009F0709F041C0429FC001439F900D529F6B
:1013D000900D1124092E000CAA0BBB0B809360000A
:1013E00090936100A0936200B09363001FC08EEEE3
:1013F0000E94F4069DCF64E08AEFFACF68E0FCCF4C
:1014000080911702F5CF62E0F7CF66E0F5CF67E095
:10141000F3CF82E080936400C0926000D0926100BC
:10142000E0926200F09263000E94B50660E0E4CFB3
:10143000398161E0353F01F7F9CF0E94B506498156
:1014400063E04423C9F2F2CF440F551F0196B7CF92
:10145000898180FF0AC0949A998191FF08C0909A6F
:10146000A981A2FF06C0919AE1CF9498F5CF9098F8
:10147000F7CF9198DBCF8091150284FF59CF8091EF
:101480001802853009F4D8C038F5833009F4CEC08D
:10149000843009F4CEC081114BCF0E94A706811180
:1014A0000E9456070E948C06282F30E030937C0063
:1014B00020937B002C3F310509F43ACF232B19F1FF
:1014C00060E00E94F4061092A6001092A70010920D
:1014D000A8001092A9002CCF883009F4B0C08C303D
:1014E00009F026CF8091AA00811102C00E94560700
:1014F0008091AB00882321F00E94A70681113CC097
:1015000010921802E0CF8091AB00882309F410CF2D
:101510004091A6005091A7006091A8007091A90089
:101520004F5F5F4F6F4F7F4F4093A6005093A700D0
:101530006093A8007093A90080916400BAEF8B9F1C
:10154000C0011124845D9E4F092E000CAA0BBB0B19
:10155000481759076A077B070CF4EACE1092A600D9
:101560001092A7001092A8001092A9001092AA0051
:101570008CE080931802DCCEE091AA008091A60056
:101580009091A700A091A800B091A9000197A10592
:10159000B10511F0EE2399F081E08E0F8093AA003F
:1015A000F0E0E455FF4F6CE080810E94F4068091EA
:1015B000AA006091AB000E943E0B9093AA0080911C
:1015C000A6009091A700A091A800B091A9009C014D
:1015D000AD012F5F3F4F4F4F5F4F29833A834B83BE
:1015E0005C832091600030916100409162005091D5
:1015F0006300AAE0B0E00E94A50B6D837E838F8319
:1016000098879B01AC012D5F3F4F4F4F5F4F698122
:101610007A818B819C810E94800B6093A6007093DD
:10162000A7008093A8009093A90082CE60E082E09A
:10163000DFCE65E08BEADCCE60E083E8D9CE919A1C
:10164000909A949A0E94B50688EE93E00E941A023E
:1016500091989098949860E08AEACACEDB018F93C3
:101660009F930E94A50BBF91AF91A29F800D911DEA
:10167000A39F900DB29F900D11240895991B79E0BE
:1016800004C0991F961708F0961B881F7A95C9F712
:101690008095089597FB072E16F4009407D077FDE8
:1016A00009D00E94B00B07FC05D03EF490958195BF
:1016B0009F4F0895709561957F4F0895A1E21A2E6E
:1016C000AA1BBB1BFD010DC0AA1FBB1FEE1FFF1FE6
:1016D000A217B307E407F50720F0A21BB30BE40B36
:1016E000F50B661F771F881F991F1A9469F760957D
:1016F0007095809590959B01AC01BD01CF01089537
:10170000052E97FB1EF400940E94970B57FD07D0FF
:101710000E945E0B07FC03D04EF40C94970B50957F
:101720004095309521953F4F4F4F5F4F08959095CD
:101730008095709561957F4F8F4F9F4F0895EE0F65
:10174000FF1F0590F491E02D09940E94C40BA59F02
:10175000900DB49F900DA49F800D911D11240895AC
:10176000AA1BBB1B51E107C0AA1FBB1FA617B707C7
:1017700010F0A61BB70B881F991F5A95A9F78095E3
:101780009095BC01CD010895A29FB001B39FC00107
:10179000A39F700D811D1124911DB29F700D811D9D
:1017A0001124911D0895F894FFCF050AF709160A30
:1017B000030A160AFB09070A160A160A090A160A74
:1017C000160A160A160A160A160A160A000AFE0948
:0617D0000500000002000C
:00000001FF
